{
	"tests/StartStopUpdateExample.sol": {
		"StartStopUpdateExample": {
			"abi": [
				{
					"constant": false,
					"inputs": [],
					"name": "sendMoney",
					"outputs": [],
					"payable": true,
					"stateMutability": "payable",
					"type": "function"
				}
			],
			"devdoc": {
				"methods": {}
			},
			"evm": {
				"assembly": "    /* \"tests/StartStopUpdateExample.sol\":26:117  contract StartStopUpdateExample {... */\n  mstore(0x40, 0x80)\n  callvalue\n    /* \"--CODEGEN--\":8:17   */\n  dup1\n    /* \"--CODEGEN--\":5:7   */\n  iszero\n  tag_1\n  jumpi\n    /* \"--CODEGEN--\":30:31   */\n  0x00\n    /* \"--CODEGEN--\":27:28   */\n  dup1\n    /* \"--CODEGEN--\":20:32   */\n  revert\n    /* \"--CODEGEN--\":5:7   */\ntag_1:\n    /* \"tests/StartStopUpdateExample.sol\":26:117  contract StartStopUpdateExample {... */\n  pop\n  dataSize(sub_0)\n  dup1\n  dataOffset(sub_0)\n  0x00\n  codecopy\n  0x00\n  return\nstop\n\nsub_0: assembly {\n        /* \"tests/StartStopUpdateExample.sol\":26:117  contract StartStopUpdateExample {... */\n      mstore(0x40, 0x80)\n      jumpi(tag_1, lt(calldatasize, 0x04))\n      shr(0xe0, calldataload(0x00))\n      dup1\n      0xcbedbf5a\n      eq\n      tag_2\n      jumpi\n    tag_1:\n      0x00\n      dup1\n      revert\n        /* \"tests/StartStopUpdateExample.sol\":64:109  function sendMoney () public payable {... */\n    tag_2:\n      tag_3\n      tag_4\n      jump\t// in\n    tag_3:\n      stop\n    tag_4:\n      jump\t// out\n\n    auxdata: 0xa265627a7a72315820bcd6d3e1212be01e697fbf26dad07d9e1b455e18811a85156e8a806e2c9b711b64736f6c63430005110032\n}\n",
				"bytecode": {
					"linkReferences": {},
					"object": "6080604052348015600f57600080fd5b50606080601d6000396000f3fe608060405260043610601c5760003560e01c8063cbedbf5a146021575b600080fd5b60276029565b005b56fea265627a7a72315820bcd6d3e1212be01e697fbf26dad07d9e1b455e18811a85156e8a806e2c9b711b64736f6c63430005110032",
					"opcodes": "PUSH1 0x80 PUSH1 0x40 MSTORE CALLVALUE DUP1 ISZERO PUSH1 0xF JUMPI PUSH1 0x0 DUP1 REVERT JUMPDEST POP PUSH1 0x60 DUP1 PUSH1 0x1D PUSH1 0x0 CODECOPY PUSH1 0x0 RETURN INVALID PUSH1 0x80 PUSH1 0x40 MSTORE PUSH1 0x4 CALLDATASIZE LT PUSH1 0x1C JUMPI PUSH1 0x0 CALLDATALOAD PUSH1 0xE0 SHR DUP1 PUSH4 0xCBEDBF5A EQ PUSH1 0x21 JUMPI JUMPDEST PUSH1 0x0 DUP1 REVERT JUMPDEST PUSH1 0x27 PUSH1 0x29 JUMP JUMPDEST STOP JUMPDEST JUMP INVALID LOG2 PUSH6 0x627A7A723158 KECCAK256 0xBC 0xD6 0xD3 0xE1 0x21 0x2B 0xE0 0x1E PUSH10 0x7FBF26DAD07D9E1B455E XOR DUP2 BYTE DUP6 ISZERO PUSH15 0x8A806E2C9B711B64736F6C63430005 GT STOP ORIGIN "
				},
				"deployedBytecode": {
					"linkReferences": {},
					"object": "608060405260043610601c5760003560e01c8063cbedbf5a146021575b600080fd5b60276029565b005b56fea265627a7a72315820bcd6d3e1212be01e697fbf26dad07d9e1b455e18811a85156e8a806e2c9b711b64736f6c63430005110032",
					"opcodes": "PUSH1 0x80 PUSH1 0x40 MSTORE PUSH1 0x4 CALLDATASIZE LT PUSH1 0x1C JUMPI PUSH1 0x0 CALLDATALOAD PUSH1 0xE0 SHR DUP1 PUSH4 0xCBEDBF5A EQ PUSH1 0x21 JUMPI JUMPDEST PUSH1 0x0 DUP1 REVERT JUMPDEST PUSH1 0x27 PUSH1 0x29 JUMP JUMPDEST STOP JUMPDEST JUMP INVALID LOG2 PUSH6 0x627A7A723158 KECCAK256 0xBC 0xD6 0xD3 0xE1 0x21 0x2B 0xE0 0x1E PUSH10 0x7FBF26DAD07D9E1B455E XOR DUP2 BYTE DUP6 ISZERO PUSH15 0x8A806E2C9B711B64736F6C63430005 GT STOP ORIGIN "
				},
				"gasEstimates": {
					"creation": {
						"codeDepositCost": "19200",
						"executionCost": "69",
						"totalCost": "19269"
					},
					"external": {
						"sendMoney()": "98"
					}
				},
				"methodIdentifiers": {
					"sendMoney()": "cbedbf5a"
				}
			},
			"storageLayout": {
				"storage": [],
				"types": null
			},
			"userdoc": {
				"methods": {}
			}
		}
	}
}