{
	"tests/SentMoneyExample.sol": {
		"SendMoneyExample": {
			"abi": [
				{
					"constant": true,
					"inputs": [],
					"name": "getBalance",
					"outputs": [
						{
							"internalType": "uint256",
							"name": "",
							"type": "uint256"
						}
					],
					"payable": false,
					"stateMutability": "view",
					"type": "function"
				},
				{
					"constant": true,
					"inputs": [],
					"name": "getBalancePrev",
					"outputs": [
						{
							"internalType": "uint256",
							"name": "",
							"type": "uint256"
						}
					],
					"payable": false,
					"stateMutability": "view",
					"type": "function"
				},
				{
					"constant": false,
					"inputs": [],
					"name": "receiveMoney",
					"outputs": [],
					"payable": true,
					"stateMutability": "payable",
					"type": "function"
				}
			],
			"devdoc": {
				"methods": {}
			},
			"evm": {
				"assembly": "    /* \"tests/SentMoneyExample.sol\":26:356  contract SendMoneyExample {... */\n  mstore(0x40, 0x80)\n  callvalue\n    /* \"--CODEGEN--\":8:17   */\n  dup1\n    /* \"--CODEGEN--\":5:7   */\n  iszero\n  tag_1\n  jumpi\n    /* \"--CODEGEN--\":30:31   */\n  0x00\n    /* \"--CODEGEN--\":27:28   */\n  dup1\n    /* \"--CODEGEN--\":20:32   */\n  revert\n    /* \"--CODEGEN--\":5:7   */\ntag_1:\n    /* \"tests/SentMoneyExample.sol\":26:356  contract SendMoneyExample {... */\n  pop\n  dataSize(sub_0)\n  dup1\n  dataOffset(sub_0)\n  0x00\n  codecopy\n  0x00\n  return\nstop\n\nsub_0: assembly {\n        /* \"tests/SentMoneyExample.sol\":26:356  contract SendMoneyExample {... */\n      mstore(0x40, 0x80)\n      jumpi(tag_1, lt(calldatasize, 0x04))\n      shr(0xe0, calldataload(0x00))\n      dup1\n      0x12065fe0\n      eq\n      tag_2\n      jumpi\n      dup1\n      0x6d26ec18\n      eq\n      tag_3\n      jumpi\n      dup1\n      0xc42238ab\n      eq\n      tag_4\n      jumpi\n    tag_1:\n      0x00\n      dup1\n      revert\n        /* \"tests/SentMoneyExample.sol\":110:203  function getBalance() public view returns(uint) {... */\n    tag_2:\n      callvalue\n        /* \"--CODEGEN--\":8:17   */\n      dup1\n        /* \"--CODEGEN--\":5:7   */\n      iszero\n      tag_5\n      jumpi\n        /* \"--CODEGEN--\":30:31   */\n      0x00\n        /* \"--CODEGEN--\":27:28   */\n      dup1\n        /* \"--CODEGEN--\":20:32   */\n      revert\n        /* \"--CODEGEN--\":5:7   */\n    tag_5:\n        /* \"tests/SentMoneyExample.sol\":110:203  function getBalance() public view returns(uint) {... */\n      pop\n      tag_6\n      tag_7\n      jump\t// in\n    tag_6:\n      mload(0x40)\n      dup1\n      dup3\n      dup2\n      mstore\n      0x20\n      add\n      swap2\n      pop\n      pop\n      mload(0x40)\n      dup1\n      swap2\n      sub\n      swap1\n      return\n        /* \"tests/SentMoneyExample.sol\":58:105  function receiveMoney() public payable {... */\n    tag_3:\n      tag_8\n      tag_9\n      jump\t// in\n    tag_8:\n      stop\n        /* \"tests/SentMoneyExample.sol\":209:352  function getBalancePrev() public view returns(uint){... */\n    tag_4:\n      callvalue\n        /* \"--CODEGEN--\":8:17   */\n      dup1\n        /* \"--CODEGEN--\":5:7   */\n      iszero\n      tag_10\n      jumpi\n        /* \"--CODEGEN--\":30:31   */\n      0x00\n        /* \"--CODEGEN--\":27:28   */\n      dup1\n        /* \"--CODEGEN--\":20:32   */\n      revert\n        /* \"--CODEGEN--\":5:7   */\n    tag_10:\n        /* \"tests/SentMoneyExample.sol\":209:352  function getBalancePrev() public view returns(uint){... */\n      pop\n      tag_11\n      tag_12\n      jump\t// in\n    tag_11:\n      mload(0x40)\n      dup1\n      dup3\n      dup2\n      mstore\n      0x20\n      add\n      swap2\n      pop\n      pop\n      mload(0x40)\n      dup1\n      swap2\n      sub\n      swap1\n      return\n        /* \"tests/SentMoneyExample.sol\":110:203  function getBalance() public view returns(uint) {... */\n    tag_7:\n        /* \"tests/SentMoneyExample.sol\":152:156  uint */\n      0x00\n        /* \"tests/SentMoneyExample.sol\":175:196  address(this).balance */\n      selfbalance\n        /* \"tests/SentMoneyExample.sol\":168:196  return address(this).balance */\n      swap1\n      pop\n        /* \"tests/SentMoneyExample.sol\":110:203  function getBalance() public view returns(uint) {... */\n      swap1\n      jump\t// out\n        /* \"tests/SentMoneyExample.sol\":58:105  function receiveMoney() public payable {... */\n    tag_9:\n      jump\t// out\n        /* \"tests/SentMoneyExample.sol\":209:352  function getBalancePrev() public view returns(uint){... */\n    tag_12:\n        /* \"tests/SentMoneyExample.sol\":255:259  uint */\n      0x00\n        /* \"tests/SentMoneyExample.sol\":285:327  0x7EF2e0048f5bAeDe046f6BF797943daF4ED8CB47 */\n      0x7ef2e0048f5baede046f6bf797943daf4ed8cb47\n        /* \"tests/SentMoneyExample.sol\":277:336  address(0x7EF2e0048f5bAeDe046f6BF797943daF4ED8CB47).balance */\n      0xffffffffffffffffffffffffffffffffffffffff\n      and\n      balance\n        /* \"tests/SentMoneyExample.sol\":270:336  return address(0x7EF2e0048f5bAeDe046f6BF797943daF4ED8CB47).balance */\n      swap1\n      pop\n        /* \"tests/SentMoneyExample.sol\":209:352  function getBalancePrev() public view returns(uint){... */\n      swap1\n      jump\t// out\n\n    auxdata: 0xa265627a7a72315820187f594f47ec5cccb6940ec19bb9a3eecfd53662e0a5e900d4c518378ffe853a64736f6c63430005110032\n}\n",
				"bytecode": {
					"linkReferences": {},
					"object": "608060405234801561001057600080fd5b5060ff8061001f6000396000f3fe60806040526004361060305760003560e01c806312065fe01460355780636d26ec1814605d578063c42238ab146065575b600080fd5b348015604057600080fd5b506047608d565b6040518082815260200191505060405180910390f35b60636095565b005b348015607057600080fd5b5060776097565b6040518082815260200191505060405180910390f35b600047905090565b565b6000737ef2e0048f5baede046f6bf797943daf4ed8cb4773ffffffffffffffffffffffffffffffffffffffff163190509056fea265627a7a72315820187f594f47ec5cccb6940ec19bb9a3eecfd53662e0a5e900d4c518378ffe853a64736f6c63430005110032",
					"opcodes": "PUSH1 0x80 PUSH1 0x40 MSTORE CALLVALUE DUP1 ISZERO PUSH2 0x10 JUMPI PUSH1 0x0 DUP1 REVERT JUMPDEST POP PUSH1 0xFF DUP1 PUSH2 0x1F PUSH1 0x0 CODECOPY PUSH1 0x0 RETURN INVALID PUSH1 0x80 PUSH1 0x40 MSTORE PUSH1 0x4 CALLDATASIZE LT PUSH1 0x30 JUMPI PUSH1 0x0 CALLDATALOAD PUSH1 0xE0 SHR DUP1 PUSH4 0x12065FE0 EQ PUSH1 0x35 JUMPI DUP1 PUSH4 0x6D26EC18 EQ PUSH1 0x5D JUMPI DUP1 PUSH4 0xC42238AB EQ PUSH1 0x65 JUMPI JUMPDEST PUSH1 0x0 DUP1 REVERT JUMPDEST CALLVALUE DUP1 ISZERO PUSH1 0x40 JUMPI PUSH1 0x0 DUP1 REVERT JUMPDEST POP PUSH1 0x47 PUSH1 0x8D JUMP JUMPDEST PUSH1 0x40 MLOAD DUP1 DUP3 DUP2 MSTORE PUSH1 0x20 ADD SWAP2 POP POP PUSH1 0x40 MLOAD DUP1 SWAP2 SUB SWAP1 RETURN JUMPDEST PUSH1 0x63 PUSH1 0x95 JUMP JUMPDEST STOP JUMPDEST CALLVALUE DUP1 ISZERO PUSH1 0x70 JUMPI PUSH1 0x0 DUP1 REVERT JUMPDEST POP PUSH1 0x77 PUSH1 0x97 JUMP JUMPDEST PUSH1 0x40 MLOAD DUP1 DUP3 DUP2 MSTORE PUSH1 0x20 ADD SWAP2 POP POP PUSH1 0x40 MLOAD DUP1 SWAP2 SUB SWAP1 RETURN JUMPDEST PUSH1 0x0 SELFBALANCE SWAP1 POP SWAP1 JUMP JUMPDEST JUMP JUMPDEST PUSH1 0x0 PUSH20 0x7EF2E0048F5BAEDE046F6BF797943DAF4ED8CB47 PUSH20 0xFFFFFFFFFFFFFFFFFFFFFFFFFFFFFFFFFFFFFFFF AND BALANCE SWAP1 POP SWAP1 JUMP INVALID LOG2 PUSH6 0x627A7A723158 KECCAK256 XOR PUSH32 0x594F47EC5CCCB6940EC19BB9A3EECFD53662E0A5E900D4C518378FFE853A6473 PUSH16 0x6C634300051100320000000000000000 "
				},
				"gasEstimates": {
					"creation": {
						"codeDepositCost": "51000",
						"executionCost": "99",
						"totalCost": "51099"
					},
					"external": {
						"getBalance()": "193",
						"getBalancePrev()": "941",
						"receiveMoney()": "120"
					}
				},
				"methodIdentifiers": {
					"getBalance()": "12065fe0",
					"getBalancePrev()": "c42238ab",
					"receiveMoney()": "6d26ec18"
				}
			},
			"storageLayout": {
				"storage": [],
				"types": null
			},
			"userdoc": {
				"methods": {}
			}
		}
	}
}