{
	"tests/SentMoneyExample.sol": {
		"SendMoneyExample": {
			"abi": [
				{
					"constant": false,
					"inputs": [],
					"name": "receiveMoney",
					"outputs": [],
					"payable": true,
					"stateMutability": "payable",
					"type": "function"
				}
			],
			"devdoc": {
				"methods": {}
			},
			"evm": {
				"assembly": "    /* \"tests/SentMoneyExample.sol\":26:119  contract SendMoneyExample {... */\n  mstore(0x40, 0x80)\n  callvalue\n    /* \"--CODEGEN--\":8:17   */\n  dup1\n    /* \"--CODEGEN--\":5:7   */\n  iszero\n  tag_1\n  jumpi\n    /* \"--CODEGEN--\":30:31   */\n  0x00\n    /* \"--CODEGEN--\":27:28   */\n  dup1\n    /* \"--CODEGEN--\":20:32   */\n  revert\n    /* \"--CODEGEN--\":5:7   */\ntag_1:\n    /* \"tests/SentMoneyExample.sol\":26:119  contract SendMoneyExample {... */\n  pop\n  dataSize(sub_0)\n  dup1\n  dataOffset(sub_0)\n  0x00\n  codecopy\n  0x00\n  return\nstop\n\nsub_0: assembly {\n        /* \"tests/SentMoneyExample.sol\":26:119  contract SendMoneyExample {... */\n      mstore(0x40, 0x80)\n      jumpi(tag_1, lt(calldatasize, 0x04))\n      shr(0xe0, calldataload(0x00))\n      dup1\n      0x6d26ec18\n      eq\n      tag_2\n      jumpi\n    tag_1:\n      0x00\n      dup1\n      revert\n        /* \"tests/SentMoneyExample.sol\":58:105  function receiveMoney() public payable {... */\n    tag_2:\n      tag_3\n      tag_4\n      jump\t// in\n    tag_3:\n      stop\n    tag_4:\n      jump\t// out\n\n    auxdata: 0xa265627a7a7231582067c448b6ba71b49a5cd2afb7a27a1f7dacf2152ec97c8a330823ea7e1a03e70f64736f6c63430005110032\n}\n",
				"bytecode": {
					"linkReferences": {},
					"object": "6080604052348015600f57600080fd5b50606080601d6000396000f3fe608060405260043610601c5760003560e01c80636d26ec18146021575b600080fd5b60276029565b005b56fea265627a7a7231582067c448b6ba71b49a5cd2afb7a27a1f7dacf2152ec97c8a330823ea7e1a03e70f64736f6c63430005110032",
					"opcodes": "PUSH1 0x80 PUSH1 0x40 MSTORE CALLVALUE DUP1 ISZERO PUSH1 0xF JUMPI PUSH1 0x0 DUP1 REVERT JUMPDEST POP PUSH1 0x60 DUP1 PUSH1 0x1D PUSH1 0x0 CODECOPY PUSH1 0x0 RETURN INVALID PUSH1 0x80 PUSH1 0x40 MSTORE PUSH1 0x4 CALLDATASIZE LT PUSH1 0x1C JUMPI PUSH1 0x0 CALLDATALOAD PUSH1 0xE0 SHR DUP1 PUSH4 0x6D26EC18 EQ PUSH1 0x21 JUMPI JUMPDEST PUSH1 0x0 DUP1 REVERT JUMPDEST PUSH1 0x27 PUSH1 0x29 JUMP JUMPDEST STOP JUMPDEST JUMP INVALID LOG2 PUSH6 0x627A7A723158 KECCAK256 PUSH8 0xC448B6BA71B49A5C 0xD2 0xAF 0xB7 LOG2 PUSH27 0x1F7DACF2152EC97C8A330823EA7E1A03E70F64736F6C6343000511 STOP ORIGIN "
				},
				"deployedBytecode": {
					"linkReferences": {},
					"object": "608060405260043610601c5760003560e01c80636d26ec18146021575b600080fd5b60276029565b005b56fea265627a7a7231582067c448b6ba71b49a5cd2afb7a27a1f7dacf2152ec97c8a330823ea7e1a03e70f64736f6c63430005110032",
					"opcodes": "PUSH1 0x80 PUSH1 0x40 MSTORE PUSH1 0x4 CALLDATASIZE LT PUSH1 0x1C JUMPI PUSH1 0x0 CALLDATALOAD PUSH1 0xE0 SHR DUP1 PUSH4 0x6D26EC18 EQ PUSH1 0x21 JUMPI JUMPDEST PUSH1 0x0 DUP1 REVERT JUMPDEST PUSH1 0x27 PUSH1 0x29 JUMP JUMPDEST STOP JUMPDEST JUMP INVALID LOG2 PUSH6 0x627A7A723158 KECCAK256 PUSH8 0xC448B6BA71B49A5C 0xD2 0xAF 0xB7 LOG2 PUSH27 0x1F7DACF2152EC97C8A330823EA7E1A03E70F64736F6C6343000511 STOP ORIGIN "
				},
				"gasEstimates": {
					"creation": {
						"codeDepositCost": "19200",
						"executionCost": "69",
						"totalCost": "19269"
					},
					"external": {
						"receiveMoney()": "98"
					}
				},
				"methodIdentifiers": {
					"receiveMoney()": "6d26ec18"
				}
			},
			"storageLayout": {
				"storage": [],
				"types": null
			},
			"userdoc": {
				"methods": {}
			}
		}
	}
}