{
	"tests/SentMoneyExample.sol": {
		"SendMoneyExample": {
			"abi": [
				{
					"constant": false,
					"inputs": [],
					"name": "getBalance",
					"outputs": [],
					"payable": false,
					"stateMutability": "nonpayable",
					"type": "function"
				},
				{
					"constant": false,
					"inputs": [],
					"name": "receiveMoney",
					"outputs": [],
					"payable": true,
					"stateMutability": "payable",
					"type": "function"
				}
			],
			"devdoc": {
				"methods": {}
			},
			"evm": {
				"assembly": "    /* \"tests/SentMoneyExample.sol\":26:164  contract SendMoneyExample {... */\n  mstore(0x40, 0x80)\n  callvalue\n    /* \"--CODEGEN--\":8:17   */\n  dup1\n    /* \"--CODEGEN--\":5:7   */\n  iszero\n  tag_1\n  jumpi\n    /* \"--CODEGEN--\":30:31   */\n  0x00\n    /* \"--CODEGEN--\":27:28   */\n  dup1\n    /* \"--CODEGEN--\":20:32   */\n  revert\n    /* \"--CODEGEN--\":5:7   */\ntag_1:\n    /* \"tests/SentMoneyExample.sol\":26:164  contract SendMoneyExample {... */\n  pop\n  dataSize(sub_0)\n  dup1\n  dataOffset(sub_0)\n  0x00\n  codecopy\n  0x00\n  return\nstop\n\nsub_0: assembly {\n        /* \"tests/SentMoneyExample.sol\":26:164  contract SendMoneyExample {... */\n      mstore(0x40, 0x80)\n      jumpi(tag_1, lt(calldatasize, 0x04))\n      shr(0xe0, calldataload(0x00))\n      dup1\n      0x12065fe0\n      eq\n      tag_2\n      jumpi\n      dup1\n      0x6d26ec18\n      eq\n      tag_3\n      jumpi\n    tag_1:\n      0x00\n      dup1\n      revert\n        /* \"tests/SentMoneyExample.sol\":110:155  function getBalance() public {... */\n    tag_2:\n      callvalue\n        /* \"--CODEGEN--\":8:17   */\n      dup1\n        /* \"--CODEGEN--\":5:7   */\n      iszero\n      tag_4\n      jumpi\n        /* \"--CODEGEN--\":30:31   */\n      0x00\n        /* \"--CODEGEN--\":27:28   */\n      dup1\n        /* \"--CODEGEN--\":20:32   */\n      revert\n        /* \"--CODEGEN--\":5:7   */\n    tag_4:\n        /* \"tests/SentMoneyExample.sol\":110:155  function getBalance() public {... */\n      pop\n      tag_5\n      tag_6\n      jump\t// in\n    tag_5:\n      stop\n        /* \"tests/SentMoneyExample.sol\":58:105  function receiveMoney() public payable {... */\n    tag_3:\n      tag_7\n      tag_8\n      jump\t// in\n    tag_7:\n      stop\n        /* \"tests/SentMoneyExample.sol\":110:155  function getBalance() public {... */\n    tag_6:\n      jump\t// out\n        /* \"tests/SentMoneyExample.sol\":58:105  function receiveMoney() public payable {... */\n    tag_8:\n      jump\t// out\n\n    auxdata: 0xa265627a7a72315820dc66fb7f5008117ef89922cf33d0cff73267ebf9328f6669dd672b872b643fdd64736f6c63430005110032\n}\n",
				"bytecode": {
					"linkReferences": {},
					"object": "6080604052348015600f57600080fd5b5060808061001e6000396000f3fe60806040526004361060265760003560e01c806312065fe014602b5780636d26ec1814603f575b600080fd5b348015603657600080fd5b50603d6047565b005b60456049565b005b565b56fea265627a7a72315820dc66fb7f5008117ef89922cf33d0cff73267ebf9328f6669dd672b872b643fdd64736f6c63430005110032",
					"opcodes": "PUSH1 0x80 PUSH1 0x40 MSTORE CALLVALUE DUP1 ISZERO PUSH1 0xF JUMPI PUSH1 0x0 DUP1 REVERT JUMPDEST POP PUSH1 0x80 DUP1 PUSH2 0x1E PUSH1 0x0 CODECOPY PUSH1 0x0 RETURN INVALID PUSH1 0x80 PUSH1 0x40 MSTORE PUSH1 0x4 CALLDATASIZE LT PUSH1 0x26 JUMPI PUSH1 0x0 CALLDATALOAD PUSH1 0xE0 SHR DUP1 PUSH4 0x12065FE0 EQ PUSH1 0x2B JUMPI DUP1 PUSH4 0x6D26EC18 EQ PUSH1 0x3F JUMPI JUMPDEST PUSH1 0x0 DUP1 REVERT JUMPDEST CALLVALUE DUP1 ISZERO PUSH1 0x36 JUMPI PUSH1 0x0 DUP1 REVERT JUMPDEST POP PUSH1 0x3D PUSH1 0x47 JUMP JUMPDEST STOP JUMPDEST PUSH1 0x45 PUSH1 0x49 JUMP JUMPDEST STOP JUMPDEST JUMP JUMPDEST JUMP INVALID LOG2 PUSH6 0x627A7A723158 KECCAK256 0xDC PUSH7 0xFB7F5008117EF8 SWAP10 0x22 0xCF CALLER 0xD0 0xCF 0xF7 ORIGIN PUSH8 0xEBF9328F6669DD67 0x2B DUP8 0x2B PUSH5 0x3FDD64736F PUSH13 0x63430005110032000000000000 "
				},
				"gasEstimates": {
					"creation": {
						"codeDepositCost": "25600",
						"executionCost": "75",
						"totalCost": "25675"
					},
					"external": {
						"getBalance()": "122",
						"receiveMoney()": "120"
					}
				},
				"methodIdentifiers": {
					"getBalance()": "12065fe0",
					"receiveMoney()": "6d26ec18"
				}
			},
			"storageLayout": {
				"storage": [],
				"types": null
			},
			"userdoc": {
				"methods": {}
			}
		}
	}
}