{
	"tests/Variables.sol": {
		"WorkingWithVariables": {
			"abi": [
				{
					"constant": false,
					"inputs": [],
					"name": "decrementUin",
					"outputs": [],
					"payable": false,
					"stateMutability": "nonpayable",
					"type": "function"
				},
				{
					"constant": false,
					"inputs": [],
					"name": "incrementUin",
					"outputs": [],
					"payable": false,
					"stateMutability": "nonpayable",
					"type": "function"
				},
				{
					"constant": true,
					"inputs": [],
					"name": "myBool",
					"outputs": [
						{
							"internalType": "bool",
							"name": "",
							"type": "bool"
						}
					],
					"payable": false,
					"stateMutability": "view",
					"type": "function"
				},
				{
					"constant": true,
					"inputs": [],
					"name": "myUint",
					"outputs": [
						{
							"internalType": "uint256",
							"name": "",
							"type": "uint256"
						}
					],
					"payable": false,
					"stateMutability": "view",
					"type": "function"
				},
				{
					"constant": true,
					"inputs": [],
					"name": "myUint8",
					"outputs": [
						{
							"internalType": "uint8",
							"name": "",
							"type": "uint8"
						}
					],
					"payable": false,
					"stateMutability": "view",
					"type": "function"
				},
				{
					"constant": false,
					"inputs": [
						{
							"internalType": "bool",
							"name": "_myBool",
							"type": "bool"
						}
					],
					"name": "setMyBool",
					"outputs": [],
					"payable": false,
					"stateMutability": "nonpayable",
					"type": "function"
				},
				{
					"constant": false,
					"inputs": [
						{
							"internalType": "uint256",
							"name": "_myUint",
							"type": "uint256"
						}
					],
					"name": "setMyUint",
					"outputs": [],
					"payable": false,
					"stateMutability": "nonpayable",
					"type": "function"
				}
			],
			"devdoc": {
				"methods": {}
			},
			"evm": {
				"assembly": "    /* \"tests/Variables.sol\":26:411  contract WorkingWithVariables{... */\n  mstore(0x40, 0x80)\n  callvalue\n    /* \"--CODEGEN--\":8:17   */\n  dup1\n    /* \"--CODEGEN--\":5:7   */\n  iszero\n  tag_1\n  jumpi\n    /* \"--CODEGEN--\":30:31   */\n  0x00\n    /* \"--CODEGEN--\":27:28   */\n  dup1\n    /* \"--CODEGEN--\":20:32   */\n  revert\n    /* \"--CODEGEN--\":5:7   */\ntag_1:\n    /* \"tests/Variables.sol\":26:411  contract WorkingWithVariables{... */\n  pop\n  dataSize(sub_0)\n  dup1\n  dataOffset(sub_0)\n  0x00\n  codecopy\n  0x00\n  return\nstop\n\nsub_0: assembly {\n        /* \"tests/Variables.sol\":26:411  contract WorkingWithVariables{... */\n      mstore(0x40, 0x80)\n      callvalue\n        /* \"--CODEGEN--\":8:17   */\n      dup1\n        /* \"--CODEGEN--\":5:7   */\n      iszero\n      tag_1\n      jumpi\n        /* \"--CODEGEN--\":30:31   */\n      0x00\n        /* \"--CODEGEN--\":27:28   */\n      dup1\n        /* \"--CODEGEN--\":20:32   */\n      revert\n        /* \"--CODEGEN--\":5:7   */\n    tag_1:\n        /* \"tests/Variables.sol\":26:411  contract WorkingWithVariables{... */\n      pop\n      jumpi(tag_2, lt(calldatasize, 0x04))\n      shr(0xe0, calldataload(0x00))\n      dup1\n      0xe227ee39\n      gt\n      tag_10\n      jumpi\n      dup1\n      0xe227ee39\n      eq\n      tag_6\n      jumpi\n      dup1\n      0xe2a4b2af\n      eq\n      tag_7\n      jumpi\n      dup1\n      0xe492fd84\n      eq\n      tag_8\n      jumpi\n      dup1\n      0xeb1b30d9\n      eq\n      tag_9\n      jumpi\n      jump(tag_2)\n    tag_10:\n      dup1\n      0x06540f7e\n      eq\n      tag_3\n      jumpi\n      dup1\n      0x3ed78308\n      eq\n      tag_4\n      jumpi\n      dup1\n      0x6deecdbe\n      eq\n      tag_5\n      jumpi\n    tag_2:\n      0x00\n      dup1\n      revert\n        /* \"tests/Variables.sol\":61:82  uint256 public myUint */\n    tag_3:\n      tag_11\n      tag_12\n      jump\t// in\n    tag_11:\n      mload(0x40)\n      dup1\n      dup3\n      dup2\n      mstore\n      0x20\n      add\n      swap2\n      pop\n      pop\n      mload(0x40)\n      dup1\n      swap2\n      sub\n      swap1\n      return\n        /* \"tests/Variables.sol\":362:409  function decrementUin() public {... */\n    tag_4:\n      tag_13\n      tag_14\n      jump\t// in\n    tag_13:\n      stop\n        /* \"tests/Variables.sol\":168:186  bool public myBool */\n    tag_5:\n      tag_15\n      tag_16\n      jump\t// in\n    tag_15:\n      mload(0x40)\n      dup1\n      dup3\n      iszero\n      iszero\n      iszero\n      iszero\n      dup2\n      mstore\n      0x20\n      add\n      swap2\n      pop\n      pop\n      mload(0x40)\n      dup1\n      swap2\n      sub\n      swap1\n      return\n        /* \"tests/Variables.sol\":299:356  function incrementUin() public {... */\n    tag_6:\n      tag_17\n      tag_18\n      jump\t// in\n    tag_17:\n      stop\n        /* \"tests/Variables.sol\":272:292  uint8 public myUint8 */\n    tag_7:\n      tag_19\n      tag_20\n      jump\t// in\n    tag_19:\n      mload(0x40)\n      dup1\n      dup3\n      0xff\n      and\n      0xff\n      and\n      dup2\n      mstore\n      0x20\n      add\n      swap2\n      pop\n      pop\n      mload(0x40)\n      dup1\n      swap2\n      sub\n      swap1\n      return\n        /* \"tests/Variables.sol\":89:162  function setMyUint(uint _myUint) public {... */\n    tag_8:\n      tag_21\n      0x04\n      dup1\n      calldatasize\n      sub\n        /* \"--CODEGEN--\":13:15   */\n      0x20\n        /* \"--CODEGEN--\":8:11   */\n      dup2\n        /* \"--CODEGEN--\":5:16   */\n      lt\n        /* \"--CODEGEN--\":2:4   */\n      iszero\n      tag_22\n      jumpi\n        /* \"--CODEGEN--\":29:30   */\n      0x00\n        /* \"--CODEGEN--\":26:27   */\n      dup1\n        /* \"--CODEGEN--\":19:31   */\n      revert\n        /* \"--CODEGEN--\":2:4   */\n    tag_22:\n        /* \"tests/Variables.sol\":89:162  function setMyUint(uint _myUint) public {... */\n      dup2\n      add\n      swap1\n      dup1\n      dup1\n      calldataload\n      swap1\n      0x20\n      add\n      swap1\n      swap3\n      swap2\n      swap1\n      pop\n      pop\n      pop\n      tag_23\n      jump\t// in\n    tag_21:\n      stop\n        /* \"tests/Variables.sol\":193:266  function setMyBool(bool _myBool) public {... */\n    tag_9:\n      tag_24\n      0x04\n      dup1\n      calldatasize\n      sub\n        /* \"--CODEGEN--\":13:15   */\n      0x20\n        /* \"--CODEGEN--\":8:11   */\n      dup2\n        /* \"--CODEGEN--\":5:16   */\n      lt\n        /* \"--CODEGEN--\":2:4   */\n      iszero\n      tag_25\n      jumpi\n        /* \"--CODEGEN--\":29:30   */\n      0x00\n        /* \"--CODEGEN--\":26:27   */\n      dup1\n        /* \"--CODEGEN--\":19:31   */\n      revert\n        /* \"--CODEGEN--\":2:4   */\n    tag_25:\n        /* \"tests/Variables.sol\":193:266  function setMyBool(bool _myBool) public {... */\n      dup2\n      add\n      swap1\n      dup1\n      dup1\n      calldataload\n      iszero\n      iszero\n      swap1\n      0x20\n      add\n      swap1\n      swap3\n      swap2\n      swap1\n      pop\n      pop\n      pop\n      tag_26\n      jump\t// in\n    tag_24:\n      stop\n        /* \"tests/Variables.sol\":61:82  uint256 public myUint */\n    tag_12:\n      sload(0x00)\n      dup2\n      jump\t// out\n        /* \"tests/Variables.sol\":362:409  function decrementUin() public {... */\n    tag_14:\n      jump\t// out\n        /* \"tests/Variables.sol\":168:186  bool public myBool */\n    tag_16:\n      0x01\n      0x00\n      swap1\n      sload\n      swap1\n      0x0100\n      exp\n      swap1\n      div\n      0xff\n      and\n      dup2\n      jump\t// out\n        /* \"tests/Variables.sol\":299:356  function incrementUin() public {... */\n    tag_18:\n        /* \"tests/Variables.sol\":340:347  myUint8 */\n      0x01\n      dup1\n        /* \"tests/Variables.sol\":340:349  myUint8++ */\n      dup2\n      dup2\n      swap1\n      sload\n      swap1\n      0x0100\n      exp\n      swap1\n      div\n      0xff\n      and\n      dup1\n      swap3\n      swap2\n      swap1\n      0x01\n      add\n      swap2\n      swap1\n      0x0100\n      exp\n      dup2\n      sload\n      dup2\n      0xff\n      mul\n      not\n      and\n      swap1\n      dup4\n      0xff\n      and\n      mul\n      or\n      swap1\n      sstore\n      pop\n      pop\n        /* \"tests/Variables.sol\":299:356  function incrementUin() public {... */\n      jump\t// out\n        /* \"tests/Variables.sol\":272:292  uint8 public myUint8 */\n    tag_20:\n      0x01\n      dup1\n      swap1\n      sload\n      swap1\n      0x0100\n      exp\n      swap1\n      div\n      0xff\n      and\n      dup2\n      jump\t// out\n        /* \"tests/Variables.sol\":89:162  function setMyUint(uint _myUint) public {... */\n    tag_23:\n        /* \"tests/Variables.sol\":148:155  _myUint */\n      dup1\n        /* \"tests/Variables.sol\":139:145  myUint */\n      0x00\n        /* \"tests/Variables.sol\":139:155  myUint = _myUint */\n      dup2\n      swap1\n      sstore\n      pop\n        /* \"tests/Variables.sol\":89:162  function setMyUint(uint _myUint) public {... */\n      pop\n      jump\t// out\n        /* \"tests/Variables.sol\":193:266  function setMyBool(bool _myBool) public {... */\n    tag_26:\n        /* \"tests/Variables.sol\":252:259  _myBool */\n      dup1\n        /* \"tests/Variables.sol\":243:249  myBool */\n      0x01\n      0x00\n        /* \"tests/Variables.sol\":243:259  myBool = _myBool */\n      0x0100\n      exp\n      dup2\n      sload\n      dup2\n      0xff\n      mul\n      not\n      and\n      swap1\n      dup4\n      iszero\n      iszero\n      mul\n      or\n      swap1\n      sstore\n      pop\n        /* \"tests/Variables.sol\":193:266  function setMyBool(bool _myBool) public {... */\n      pop\n      jump\t// out\n\n    auxdata: 0xa265627a7a72315820148277a42269b7f384fb022d8eacdc6d2ec3323a9cff05b6f249a83b1f89c5a064736f6c63430005110032\n}\n",
				"bytecode": {
					"linkReferences": {},
					"object": "608060405234801561001057600080fd5b50610214806100206000396000f3fe608060405234801561001057600080fd5b506004361061007d5760003560e01c8063e227ee391161005b578063e227ee39146100cc578063e2a4b2af146100d6578063e492fd84146100fa578063eb1b30d9146101285761007d565b806306540f7e146100825780633ed78308146100a05780636deecdbe146100aa575b600080fd5b61008a610158565b6040518082815260200191505060405180910390f35b6100a861015e565b005b6100b2610160565b604051808215151515815260200191505060405180910390f35b6100d4610173565b005b6100de6101a6565b604051808260ff1660ff16815260200191505060405180910390f35b6101266004803603602081101561011057600080fd5b81019080803590602001909291905050506101b8565b005b6101566004803603602081101561013e57600080fd5b810190808035151590602001909291905050506101c2565b005b60005481565b565b600160009054906101000a900460ff1681565b60018081819054906101000a900460ff168092919060010191906101000a81548160ff021916908360ff16021790555050565b6001809054906101000a900460ff1681565b8060008190555050565b80600160006101000a81548160ff0219169083151502179055505056fea265627a7a72315820148277a42269b7f384fb022d8eacdc6d2ec3323a9cff05b6f249a83b1f89c5a064736f6c63430005110032",
					"opcodes": "PUSH1 0x80 PUSH1 0x40 MSTORE CALLVALUE DUP1 ISZERO PUSH2 0x10 JUMPI PUSH1 0x0 DUP1 REVERT JUMPDEST POP PUSH2 0x214 DUP1 PUSH2 0x20 PUSH1 0x0 CODECOPY PUSH1 0x0 RETURN INVALID PUSH1 0x80 PUSH1 0x40 MSTORE CALLVALUE DUP1 ISZERO PUSH2 0x10 JUMPI PUSH1 0x0 DUP1 REVERT JUMPDEST POP PUSH1 0x4 CALLDATASIZE LT PUSH2 0x7D JUMPI PUSH1 0x0 CALLDATALOAD PUSH1 0xE0 SHR DUP1 PUSH4 0xE227EE39 GT PUSH2 0x5B JUMPI DUP1 PUSH4 0xE227EE39 EQ PUSH2 0xCC JUMPI DUP1 PUSH4 0xE2A4B2AF EQ PUSH2 0xD6 JUMPI DUP1 PUSH4 0xE492FD84 EQ PUSH2 0xFA JUMPI DUP1 PUSH4 0xEB1B30D9 EQ PUSH2 0x128 JUMPI PUSH2 0x7D JUMP JUMPDEST DUP1 PUSH4 0x6540F7E EQ PUSH2 0x82 JUMPI DUP1 PUSH4 0x3ED78308 EQ PUSH2 0xA0 JUMPI DUP1 PUSH4 0x6DEECDBE EQ PUSH2 0xAA JUMPI JUMPDEST PUSH1 0x0 DUP1 REVERT JUMPDEST PUSH2 0x8A PUSH2 0x158 JUMP JUMPDEST PUSH1 0x40 MLOAD DUP1 DUP3 DUP2 MSTORE PUSH1 0x20 ADD SWAP2 POP POP PUSH1 0x40 MLOAD DUP1 SWAP2 SUB SWAP1 RETURN JUMPDEST PUSH2 0xA8 PUSH2 0x15E JUMP JUMPDEST STOP JUMPDEST PUSH2 0xB2 PUSH2 0x160 JUMP JUMPDEST PUSH1 0x40 MLOAD DUP1 DUP3 ISZERO ISZERO ISZERO ISZERO DUP2 MSTORE PUSH1 0x20 ADD SWAP2 POP POP PUSH1 0x40 MLOAD DUP1 SWAP2 SUB SWAP1 RETURN JUMPDEST PUSH2 0xD4 PUSH2 0x173 JUMP JUMPDEST STOP JUMPDEST PUSH2 0xDE PUSH2 0x1A6 JUMP JUMPDEST PUSH1 0x40 MLOAD DUP1 DUP3 PUSH1 0xFF AND PUSH1 0xFF AND DUP2 MSTORE PUSH1 0x20 ADD SWAP2 POP POP PUSH1 0x40 MLOAD DUP1 SWAP2 SUB SWAP1 RETURN JUMPDEST PUSH2 0x126 PUSH1 0x4 DUP1 CALLDATASIZE SUB PUSH1 0x20 DUP2 LT ISZERO PUSH2 0x110 JUMPI PUSH1 0x0 DUP1 REVERT JUMPDEST DUP2 ADD SWAP1 DUP1 DUP1 CALLDATALOAD SWAP1 PUSH1 0x20 ADD SWAP1 SWAP3 SWAP2 SWAP1 POP POP POP PUSH2 0x1B8 JUMP JUMPDEST STOP JUMPDEST PUSH2 0x156 PUSH1 0x4 DUP1 CALLDATASIZE SUB PUSH1 0x20 DUP2 LT ISZERO PUSH2 0x13E JUMPI PUSH1 0x0 DUP1 REVERT JUMPDEST DUP2 ADD SWAP1 DUP1 DUP1 CALLDATALOAD ISZERO ISZERO SWAP1 PUSH1 0x20 ADD SWAP1 SWAP3 SWAP2 SWAP1 POP POP POP PUSH2 0x1C2 JUMP JUMPDEST STOP JUMPDEST PUSH1 0x0 SLOAD DUP2 JUMP JUMPDEST JUMP JUMPDEST PUSH1 0x1 PUSH1 0x0 SWAP1 SLOAD SWAP1 PUSH2 0x100 EXP SWAP1 DIV PUSH1 0xFF AND DUP2 JUMP JUMPDEST PUSH1 0x1 DUP1 DUP2 DUP2 SWAP1 SLOAD SWAP1 PUSH2 0x100 EXP SWAP1 DIV PUSH1 0xFF AND DUP1 SWAP3 SWAP2 SWAP1 PUSH1 0x1 ADD SWAP2 SWAP1 PUSH2 0x100 EXP DUP2 SLOAD DUP2 PUSH1 0xFF MUL NOT AND SWAP1 DUP4 PUSH1 0xFF AND MUL OR SWAP1 SSTORE POP POP JUMP JUMPDEST PUSH1 0x1 DUP1 SWAP1 SLOAD SWAP1 PUSH2 0x100 EXP SWAP1 DIV PUSH1 0xFF AND DUP2 JUMP JUMPDEST DUP1 PUSH1 0x0 DUP2 SWAP1 SSTORE POP POP JUMP JUMPDEST DUP1 PUSH1 0x1 PUSH1 0x0 PUSH2 0x100 EXP DUP2 SLOAD DUP2 PUSH1 0xFF MUL NOT AND SWAP1 DUP4 ISZERO ISZERO MUL OR SWAP1 SSTORE POP POP JUMP INVALID LOG2 PUSH6 0x627A7A723158 KECCAK256 EQ DUP3 PUSH24 0xA42269B7F384FB022D8EACDC6D2EC3323A9CFF05B6F249A8 EXTCODESIZE 0x1F DUP10 0xC5 LOG0 PUSH5 0x736F6C6343 STOP SDIV GT STOP ORIGIN "
				},
				"gasEstimates": {
					"creation": {
						"codeDepositCost": "106400",
						"executionCost": "153",
						"totalCost": "106553"
					},
					"external": {
						"decrementUin()": "167",
						"incrementUin()": "21973",
						"myBool()": "1098",
						"myUint()": "1006",
						"myUint8()": "1125",
						"setMyBool(bool)": "21167",
						"setMyUint(uint256)": "20286"
					}
				},
				"methodIdentifiers": {
					"decrementUin()": "3ed78308",
					"incrementUin()": "e227ee39",
					"myBool()": "6deecdbe",
					"myUint()": "06540f7e",
					"myUint8()": "e2a4b2af",
					"setMyBool(bool)": "eb1b30d9",
					"setMyUint(uint256)": "e492fd84"
				}
			},
			"storageLayout": {
				"storage": [
					{
						"astId": 3,
						"contract": "tests/Variables.sol:WorkingWithVariables",
						"label": "myUint",
						"offset": 0,
						"slot": "0",
						"type": "t_uint256"
					},
					{
						"astId": 15,
						"contract": "tests/Variables.sol:WorkingWithVariables",
						"label": "myBool",
						"offset": 0,
						"slot": "1",
						"type": "t_bool"
					},
					{
						"astId": 27,
						"contract": "tests/Variables.sol:WorkingWithVariables",
						"label": "myUint8",
						"offset": 1,
						"slot": "1",
						"type": "t_uint8"
					}
				],
				"types": {
					"t_bool": {
						"encoding": "inplace",
						"label": "bool",
						"numberOfBytes": "1"
					},
					"t_uint256": {
						"encoding": "inplace",
						"label": "uint256",
						"numberOfBytes": "32"
					},
					"t_uint8": {
						"encoding": "inplace",
						"label": "uint8",
						"numberOfBytes": "1"
					}
				}
			},
			"userdoc": {
				"methods": {}
			}
		}
	}
}